{
  "contractName": "Voting",
  "abi": [
    {
      "inputs": [],
      "stateMutability": "nonpayable",
      "type": "constructor"
    },
    {
      "inputs": [],
      "name": "admin",
      "outputs": [
        {
          "internalType": "address",
          "name": "",
          "type": "address"
        }
      ],
      "stateMutability": "view",
      "type": "function"
    },
    {
      "inputs": [
        {
          "internalType": "address",
          "name": "",
          "type": "address"
        }
      ],
      "name": "hasVoted",
      "outputs": [
        {
          "internalType": "bool",
          "name": "",
          "type": "bool"
        }
      ],
      "stateMutability": "view",
      "type": "function"
    },
    {
      "inputs": [
        {
          "internalType": "uint256",
          "name": "",
          "type": "uint256"
        }
      ],
      "name": "nominees",
      "outputs": [
        {
          "internalType": "string",
          "name": "name",
          "type": "string"
        },
        {
          "internalType": "string",
          "name": "symbol",
          "type": "string"
        },
        {
          "internalType": "uint256",
          "name": "voteCount",
          "type": "uint256"
        }
      ],
      "stateMutability": "view",
      "type": "function"
    },
    {
      "inputs": [
        {
          "internalType": "string",
          "name": "_name",
          "type": "string"
        },
        {
          "internalType": "string",
          "name": "_symbol",
          "type": "string"
        }
      ],
      "name": "registerNominee",
      "outputs": [],
      "stateMutability": "nonpayable",
      "type": "function"
    },
    {
      "inputs": [
        {
          "internalType": "uint256",
          "name": "nomineeIndex",
          "type": "uint256"
        }
      ],
      "name": "vote",
      "outputs": [],
      "stateMutability": "nonpayable",
      "type": "function"
    },
    {
      "inputs": [],
      "name": "getNominees",
      "outputs": [
        {
          "components": [
            {
              "internalType": "string",
              "name": "name",
              "type": "string"
            },
            {
              "internalType": "string",
              "name": "symbol",
              "type": "string"
            },
            {
              "internalType": "uint256",
              "name": "voteCount",
              "type": "uint256"
            }
          ],
          "internalType": "struct Voting.Nominee[]",
          "name": "",
          "type": "tuple[]"
        }
      ],
      "stateMutability": "view",
      "type": "function"
    }
  ],
  "bytecode": "0x608060405234801561000f575f80fd5b50335f806101000a81548173ffffffffffffffffffffffffffffffffffffffff021916908373ffffffffffffffffffffffffffffffffffffffff1602179055506110d68061005c5f395ff3fe608060405234801561000f575f80fd5b5060043610610060575f3560e01c80630121b93f1461006457806309eef43e146100805780639636f67c146100b0578063970e6485146100ce578063eec6b91e146100ea578063f851a4401461011c575b5f80fd5b61007e600480360381019061007991906106ef565b61013a565b005b61009a60048036038101906100959190610774565b61029b565b6040516100a791906107b9565b60405180910390f35b6100b86102b8565b6040516100c5919061097a565b60405180910390f35b6100e860048036038101906100e39190610ac6565b61043d565b005b61010460048036038101906100ff91906106ef565b610547565b60405161011393929190610b93565b60405180910390f35b610124610688565b6040516101319190610be5565b60405180910390f35b60025f3373ffffffffffffffffffffffffffffffffffffffff1673ffffffffffffffffffffffffffffffffffffffff1681526020019081526020015f205f9054906101000a900460ff16156101c4576040517f08c379a00000000000000000000000000000000000000000000000000000000081526004016101bb90610c48565b60405180910390fd5b600180549050811061020b576040517f08c379a000000000000000000000000000000000000000000000000000000000815260040161020290610cb0565b60405180910390fd5b600160025f3373ffffffffffffffffffffffffffffffffffffffff1673ffffffffffffffffffffffffffffffffffffffff1681526020019081526020015f205f6101000a81548160ff0219169083151502179055506001818154811061027457610273610cce565b5b905f5260205f2090600302016002015f81548092919061029390610d28565b919050555050565b6002602052805f5260405f205f915054906101000a900460ff1681565b60606001805480602002602001604051908101604052809291908181526020015f905b82821015610434578382905f5260205f2090600302016040518060600160405290815f8201805461030b90610d9c565b80601f016020809104026020016040519081016040528092919081815260200182805461033790610d9c565b80156103825780601f1061035957610100808354040283529160200191610382565b820191905f5260205f20905b81548152906001019060200180831161036557829003601f168201915b5050505050815260200160018201805461039b90610d9c565b80601f01602080910402602001604051908101604052809291908181526020018280546103c790610d9c565b80156104125780601f106103e957610100808354040283529160200191610412565b820191905f5260205f20905b8154815290600101906020018083116103f557829003601f168201915b50505050508152602001600282015481525050815260200190600101906102db565b50505050905090565b5f8054906101000a900473ffffffffffffffffffffffffffffffffffffffff1673ffffffffffffffffffffffffffffffffffffffff163373ffffffffffffffffffffffffffffffffffffffff16146104ca576040517f08c379a00000000000000000000000000000000000000000000000000000000081526004016104c190610e16565b60405180910390fd5b600160405180606001604052808481526020018381526020015f815250908060018154018082558091505060019003905f5260205f2090600302015f909190919091505f820151815f0190816105209190610fd1565b5060208201518160010190816105369190610fd1565b506040820151816002015550505050565b60018181548110610556575f80fd5b905f5260205f2090600302015f91509050805f01805461057590610d9c565b80601f01602080910402602001604051908101604052809291908181526020018280546105a190610d9c565b80156105ec5780601f106105c3576101008083540402835291602001916105ec565b820191905f5260205f20905b8154815290600101906020018083116105cf57829003601f168201915b50505050509080600101805461060190610d9c565b80601f016020809104026020016040519081016040528092919081815260200182805461062d90610d9c565b80156106785780601f1061064f57610100808354040283529160200191610678565b820191905f5260205f20905b81548152906001019060200180831161065b57829003601f168201915b5050505050908060020154905083565b5f8054906101000a900473ffffffffffffffffffffffffffffffffffffffff1681565b5f604051905090565b5f80fd5b5f80fd5b5f819050919050565b6106ce816106bc565b81146106d8575f80fd5b50565b5f813590506106e9816106c5565b92915050565b5f60208284031215610704576107036106b4565b5b5f610711848285016106db565b91505092915050565b5f73ffffffffffffffffffffffffffffffffffffffff82169050919050565b5f6107438261071a565b9050919050565b61075381610739565b811461075d575f80fd5b50565b5f8135905061076e8161074a565b92915050565b5f60208284031215610789576107886106b4565b5b5f61079684828501610760565b91505092915050565b5f8115159050919050565b6107b38161079f565b82525050565b5f6020820190506107cc5f8301846107aa565b92915050565b5f81519050919050565b5f82825260208201905092915050565b5f819050602082019050919050565b5f81519050919050565b5f82825260208201905092915050565b5f5b83811015610832578082015181840152602081019050610817565b5f8484015250505050565b5f601f19601f8301169050919050565b5f610857826107fb565b6108618185610805565b9350610871818560208601610815565b61087a8161083d565b840191505092915050565b61088e816106bc565b82525050565b5f606083015f8301518482035f8601526108ae828261084d565b915050602083015184820360208601526108c8828261084d565b91505060408301516108dd6040860182610885565b508091505092915050565b5f6108f38383610894565b905092915050565b5f602082019050919050565b5f610911826107d2565b61091b81856107dc565b93508360208202850161092d856107ec565b805f5b85811015610968578484038952815161094985826108e8565b9450610954836108fb565b925060208a01995050600181019050610930565b50829750879550505050505092915050565b5f6020820190508181035f8301526109928184610907565b905092915050565b5f80fd5b5f80fd5b7f4e487b71000000000000000000000000000000000000000000000000000000005f52604160045260245ffd5b6109d88261083d565b810181811067ffffffffffffffff821117156109f7576109f66109a2565b5b80604052505050565b5f610a096106ab565b9050610a1582826109cf565b919050565b5f67ffffffffffffffff821115610a3457610a336109a2565b5b610a3d8261083d565b9050602081019050919050565b828183375f83830152505050565b5f610a6a610a6584610a1a565b610a00565b905082815260208101848484011115610a8657610a8561099e565b5b610a91848285610a4a565b509392505050565b5f82601f830112610aad57610aac61099a565b5b8135610abd848260208601610a58565b91505092915050565b5f8060408385031215610adc57610adb6106b4565b5b5f83013567ffffffffffffffff811115610af957610af86106b8565b5b610b0585828601610a99565b925050602083013567ffffffffffffffff811115610b2657610b256106b8565b5b610b3285828601610a99565b9150509250929050565b5f82825260208201905092915050565b5f610b56826107fb565b610b608185610b3c565b9350610b70818560208601610815565b610b798161083d565b840191505092915050565b610b8d816106bc565b82525050565b5f6060820190508181035f830152610bab8186610b4c565b90508181036020830152610bbf8185610b4c565b9050610bce6040830184610b84565b949350505050565b610bdf81610739565b82525050565b5f602082019050610bf85f830184610bd6565b92915050565b7f416c726561647920766f746564000000000000000000000000000000000000005f82015250565b5f610c32600d83610b3c565b9150610c3d82610bfe565b602082019050919050565b5f6020820190508181035f830152610c5f81610c26565b9050919050565b7f496e76616c6964206e6f6d696e656500000000000000000000000000000000005f82015250565b5f610c9a600f83610b3c565b9150610ca582610c66565b602082019050919050565b5f6020820190508181035f830152610cc781610c8e565b9050919050565b7f4e487b71000000000000000000000000000000000000000000000000000000005f52603260045260245ffd5b7f4e487b71000000000000000000000000000000000000000000000000000000005f52601160045260245ffd5b5f610d32826106bc565b91507fffffffffffffffffffffffffffffffffffffffffffffffffffffffffffffffff8203610d6457610d63610cfb565b5b600182019050919050565b7f4e487b71000000000000000000000000000000000000000000000000000000005f52602260045260245ffd5b5f6002820490506001821680610db357607f821691505b602082108103610dc657610dc5610d6f565b5b50919050565b7f4f6e6c792061646d696e2063616e2072656769737465720000000000000000005f82015250565b5f610e00601783610b3c565b9150610e0b82610dcc565b602082019050919050565b5f6020820190508181035f830152610e2d81610df4565b9050919050565b5f819050815f5260205f209050919050565b5f6020601f8301049050919050565b5f82821b905092915050565b5f60088302610e907fffffffffffffffffffffffffffffffffffffffffffffffffffffffffffffffff82610e55565b610e9a8683610e55565b95508019841693508086168417925050509392505050565b5f819050919050565b5f610ed5610ed0610ecb846106bc565b610eb2565b6106bc565b9050919050565b5f819050919050565b610eee83610ebb565b610f02610efa82610edc565b848454610e61565b825550505050565b5f90565b610f16610f0a565b610f21818484610ee5565b505050565b5b81811015610f4457610f395f82610f0e565b600181019050610f27565b5050565b601f821115610f8957610f5a81610e34565b610f6384610e46565b81016020851015610f72578190505b610f86610f7e85610e46565b830182610f26565b50505b505050565b5f82821c905092915050565b5f610fa95f1984600802610f8e565b1980831691505092915050565b5f610fc18383610f9a565b9150826002028217905092915050565b610fda826107fb565b67ffffffffffffffff811115610ff357610ff26109a2565b5b610ffd8254610d9c565b611008828285610f48565b5f60209050601f831160018114611039575f8415611027578287015190505b6110318582610fb6565b865550611098565b601f19841661104786610e34565b5f5b8281101561106e57848901518255600182019150602085019450602081019050611049565b8683101561108b5784890151611087601f891682610f9a565b8355505b6001600288020188555050505b50505050505056fea26469706673582212204613a83f931005e2ae7a170f259cda71bb81129c54f5c902b7d762fa4f2af0b164736f6c63430008140033",
  "immutableReferences": {},
  "source": "// SPDX-License-Identifier: MIT\r\npragma solidity ^0.8.0;\r\n\r\ncontract Voting {\r\n    address public admin;\r\n\r\n    struct Nominee {\r\n        string name;\r\n        string symbol;\r\n        uint voteCount;\r\n    }\r\n\r\n    Nominee[] public nominees;\r\n    mapping(address => bool) public hasVoted;\r\n\r\n    constructor() {\r\n        admin = msg.sender;\r\n    }\r\n\r\n    function registerNominee(string memory _name, string memory _symbol) public {\r\n        require(msg.sender == admin, \"Only admin can register\");\r\n        nominees.push(Nominee(_name, _symbol, 0));\r\n    }\r\n\r\n    function vote(uint nomineeIndex) public {\r\n        require(!hasVoted[msg.sender], \"Already voted\");\r\n        require(nomineeIndex < nominees.length, \"Invalid nominee\");\r\n\r\n        hasVoted[msg.sender] = true;\r\n        nominees[nomineeIndex].voteCount++;\r\n    }\r\n\r\n    function getNominees() public view returns (Nominee[] memory) {\r\n        return nominees;\r\n    }\r\n}\r\n",
  "sourcePath": "C:\\Users\\kotte\\OneDrive\\Desktop\\decentralized-voting\\contracts\\voting.sol",
  "compiler": {
    "name": "solc",
    "version": "0.8.20+commit.a1b79de6.Emscripten.clang"
  },
  "schemaVersion": "3.4.16",
  "updatedAt": "2025-04-09T17:26:02.961Z",
  "devdoc": {
    "kind": "dev",
    "methods": {},
    "version": 1
  },
  "userdoc": {
    "kind": "user",
    "methods": {},
    "version": 1
  }
}